:100000000C9461000C947E000C947E000C947E0095
:100010000C947E000C947E000C947E000C947E0068
:100020000C947E000C947E000C947E000C947E0058
:100030000C947E000C947E000C947E000C947E0048
:100040000C9489010C947E000C947E000C947E002C
:100050000C947E000C947E000C947E000C947E0028
:100060000C947E000C947E00000000002400270009
:100070002A0000000000250028002B0000000000DE
:1000800023002600290004040404040404040202DA
:100090000202020203030303030301020408102007
:1000A0004080010204081020010204081020000012
:1000B0000008000201000003040700000000000027
:1000C000000011241FBECFEFD8E0DEBFCDBF11E08E
:1000D000A0E0B1E0ECE7F5E002C005900D92A2309F
:1000E000B107D9F721E0A2E0B1E001C01D92AD3027
:1000F000B207E1F70E94D3010C94BC020C940000FB
:10010000833081F028F4813099F08230A9F008958D
:100110008730A9F08830C9F08430B1F48091800034
:100120008F7D03C0809180008F7780938000089539
:1001300084B58F7784BD089584B58F7DFBCF809182
:10014000B0008F778093B00008958091B0008F7DCC
:10015000F9CFCF93DF93282F30E0F901E255FF4F1D
:100160008491F901E656FF4FD491F901EA57FF4F08
:10017000C491CC23A1F081110E948000EC2FF0E00B
:10018000EE0FFF1FE458FF4FA591B491EC91ED23C2
:1001900081E090E009F480E0DF91CF91089580E064
:1001A00090E0FACF1F93CF93DF93282F30E0F9012F
:1001B000E255FF4F8491F901E656FF4FD491F901C2
:1001C000EA57FF4FC491CC23A9F0162F81110E944A
:1001D0008000EC2FF0E0EE0FFF1FEE58FF4FA591CF
:1001E000B4918FB7F894EC91111108C0D095DE232B
:1001F000DC938FBFDF91CF911F910895DE2BF8CF55
:10020000CF93DF9390E0FC01E656FF4F24918A578D
:100210009F4FFC0184918823D1F090E0880F991FB3
:10022000FC01E859FF4FA591B491FC01EE58FF4F36
:10023000C591D491623071F49FB7F8943C91822FAC
:10024000809583238C93E8812E2B28839FBFDF9199
:10025000CF9108958FB7F894EC912E2B2C938FBFEC
:10026000F6CF3FB7F8948091090190910A01A091CF
:100270000B01B0910C0126B5A89B05C02F3F19F0CA
:100280000196A11DB11D3FBFBA2FA92F982F882716
:10029000BC01CD01620F711D811D911D42E0660FF1
:1002A000771F881F991F4A95D1F708958F929F92C3
:1002B000AF92BF92CF92DF92EF92FF926B017C01DF
:1002C0000E9431014B015C01C114D104E104F1042D
:1002D000B9F00E943101681979098A099B09683EC1
:1002E00073408105910580F321E0C21AD108E1082D
:1002F000F10888EE880E83E0981EA11CB11CE4CFA3
:10030000FF90EF90DF90CF90BF90AF909F908F9035
:1003100008951F920F920FB60F9211242F933F93BF
:100320008F939F93AF93BF938091050190910601A6
:10033000A0910701B09108013091040123E0230F3F
:100340002D3758F50196A11DB11D2093040180930E
:10035000050190930601A0930701B09308018091D5
:10036000090190910A01A0910B01B0910C01019635
:10037000A11DB11D8093090190930A01A0930B0167
:10038000B0930C01BF91AF919F918F913F912F91AD
:100390000F900FBE0F901F90189526E8230F02961E
:1003A000A11DB11DD2CF789484B5826084BD84B57F
:1003B000816084BD85B5826085BD85B5816085BD60
:1003C00080916E00816080936E0010928100809118
:1003D00081008260809381008091810081608093A0
:1003E0008100809180008160809380008091B100C5
:1003F00084608093B1008091B00081608093B000F0
:1004000080917A00846080937A0080917A00826083
:1004100080937A0080917A00816080937A00809145
:100420007A00806880937A001092C10061E082E0D7
:100430000E94000161E083E00E94000161E088E029
:100440000E94000161E089E00E94000161E08AE011
:100450000E94000162E08BE00E94000162E08CE0FB
:100460000E94000162E08DE00E94000160910001A5
:1004700082E00E94D20061E088E00E94D20061E048
:1004800089E00E94D20061E08AE00E94D200C3ECC1
:10049000D0E080E0E82E80E0F82E8DE00E94A900F8
:1004A000892B11F41092010180910101882309F434
:1004B0005CC080910301811118C0809100018823E4
:1004C000A1F08BE00E94A900892B79F468EE73E01B
:1004D00080E090E00E9456011092000160E082E00E
:1004E0000E94D20081E0809303018091020181117A
:1004F00018C080910001811114C08CE00E94A900F5
:10050000892B79F468EE73E080E090E00E94560158
:1005100011E01093000161E082E00E94D20010938C
:10052000020180910301882339F08BE00E94A90029
:10053000019711F41092030180910201882339F090
:100540008CE00E94A900019711F41092020161E071
:1005500083E00E94D200CE010197F1F760E083E0D2
:100560000E94D200CE010197F1F7E114F10409F4E1
:0C05700094CF0E94000091CFF894FFCFC0
:02057C0001017B
:00000001FF
